{
  "_format": "hh3-artifact-1",
  "contractName": "CustomERC721",
  "sourceName": "contracts/ERC721Custom.sol",
  "abi": [
    {
      "inputs": [
        {
          "internalType": "string",
          "name": "name",
          "type": "string"
        },
        {
          "internalType": "string",
          "name": "symbol",
          "type": "string"
        },
        {
          "internalType": "string",
          "name": "baseURI",
          "type": "string"
        },
        {
          "internalType": "address",
          "name": "initialOwner",
          "type": "address"
        }
      ],
      "stateMutability": "nonpayable",
      "type": "constructor"
    },
    {
      "inputs": [
        {
          "internalType": "address",
          "name": "sender",
          "type": "address"
        },
        {
          "internalType": "uint256",
          "name": "tokenId",
          "type": "uint256"
        },
        {
          "internalType": "address",
          "name": "owner",
          "type": "address"
        }
      ],
      "name": "ERC721IncorrectOwner",
      "type": "error"
    },
    {
      "inputs": [
        {
          "internalType": "address",
          "name": "operator",
          "type": "address"
        },
        {
          "internalType": "uint256",
          "name": "tokenId",
          "type": "uint256"
        }
      ],
      "name": "ERC721InsufficientApproval",
      "type": "error"
    },
    {
      "inputs": [
        {
          "internalType": "address",
          "name": "approver",
          "type": "address"
        }
      ],
      "name": "ERC721InvalidApprover",
      "type": "error"
    },
    {
      "inputs": [
        {
          "internalType": "address",
          "name": "operator",
          "type": "address"
        }
      ],
      "name": "ERC721InvalidOperator",
      "type": "error"
    },
    {
      "inputs": [
        {
          "internalType": "address",
          "name": "owner",
          "type": "address"
        }
      ],
      "name": "ERC721InvalidOwner",
      "type": "error"
    },
    {
      "inputs": [
        {
          "internalType": "address",
          "name": "receiver",
          "type": "address"
        }
      ],
      "name": "ERC721InvalidReceiver",
      "type": "error"
    },
    {
      "inputs": [
        {
          "internalType": "address",
          "name": "sender",
          "type": "address"
        }
      ],
      "name": "ERC721InvalidSender",
      "type": "error"
    },
    {
      "inputs": [
        {
          "internalType": "uint256",
          "name": "tokenId",
          "type": "uint256"
        }
      ],
      "name": "ERC721NonexistentToken",
      "type": "error"
    },
    {
      "inputs": [
        {
          "internalType": "address",
          "name": "owner",
          "type": "address"
        }
      ],
      "name": "OwnableInvalidOwner",
      "type": "error"
    },
    {
      "inputs": [
        {
          "internalType": "address",
          "name": "account",
          "type": "address"
        }
      ],
      "name": "OwnableUnauthorizedAccount",
      "type": "error"
    },
    {
      "anonymous": false,
      "inputs": [
        {
          "indexed": true,
          "internalType": "address",
          "name": "owner",
          "type": "address"
        },
        {
          "indexed": true,
          "internalType": "address",
          "name": "approved",
          "type": "address"
        },
        {
          "indexed": true,
          "internalType": "uint256",
          "name": "tokenId",
          "type": "uint256"
        }
      ],
      "name": "Approval",
      "type": "event"
    },
    {
      "anonymous": false,
      "inputs": [
        {
          "indexed": true,
          "internalType": "address",
          "name": "owner",
          "type": "address"
        },
        {
          "indexed": true,
          "internalType": "address",
          "name": "operator",
          "type": "address"
        },
        {
          "indexed": false,
          "internalType": "bool",
          "name": "approved",
          "type": "bool"
        }
      ],
      "name": "ApprovalForAll",
      "type": "event"
    },
    {
      "anonymous": false,
      "inputs": [
        {
          "indexed": true,
          "internalType": "address",
          "name": "previousOwner",
          "type": "address"
        },
        {
          "indexed": true,
          "internalType": "address",
          "name": "newOwner",
          "type": "address"
        }
      ],
      "name": "OwnershipTransferred",
      "type": "event"
    },
    {
      "anonymous": false,
      "inputs": [
        {
          "indexed": true,
          "internalType": "address",
          "name": "from",
          "type": "address"
        },
        {
          "indexed": true,
          "internalType": "address",
          "name": "to",
          "type": "address"
        },
        {
          "indexed": true,
          "internalType": "uint256",
          "name": "tokenId",
          "type": "uint256"
        }
      ],
      "name": "Transfer",
      "type": "event"
    },
    {
      "inputs": [
        {
          "internalType": "address",
          "name": "to",
          "type": "address"
        },
        {
          "internalType": "uint256",
          "name": "tokenId",
          "type": "uint256"
        }
      ],
      "name": "approve",
      "outputs": [],
      "stateMutability": "nonpayable",
      "type": "function"
    },
    {
      "inputs": [
        {
          "internalType": "address",
          "name": "owner",
          "type": "address"
        }
      ],
      "name": "balanceOf",
      "outputs": [
        {
          "internalType": "uint256",
          "name": "",
          "type": "uint256"
        }
      ],
      "stateMutability": "view",
      "type": "function"
    },
    {
      "inputs": [
        {
          "internalType": "uint256",
          "name": "tokenId",
          "type": "uint256"
        }
      ],
      "name": "getApproved",
      "outputs": [
        {
          "internalType": "address",
          "name": "",
          "type": "address"
        }
      ],
      "stateMutability": "view",
      "type": "function"
    },
    {
      "inputs": [
        {
          "internalType": "address",
          "name": "owner",
          "type": "address"
        },
        {
          "internalType": "address",
          "name": "operator",
          "type": "address"
        }
      ],
      "name": "isApprovedForAll",
      "outputs": [
        {
          "internalType": "bool",
          "name": "",
          "type": "bool"
        }
      ],
      "stateMutability": "view",
      "type": "function"
    },
    {
      "inputs": [
        {
          "internalType": "address",
          "name": "to",
          "type": "address"
        }
      ],
      "name": "mint",
      "outputs": [],
      "stateMutability": "nonpayable",
      "type": "function"
    },
    {
      "inputs": [],
      "name": "name",
      "outputs": [
        {
          "internalType": "string",
          "name": "",
          "type": "string"
        }
      ],
      "stateMutability": "view",
      "type": "function"
    },
    {
      "inputs": [],
      "name": "owner",
      "outputs": [
        {
          "internalType": "address",
          "name": "",
          "type": "address"
        }
      ],
      "stateMutability": "view",
      "type": "function"
    },
    {
      "inputs": [
        {
          "internalType": "uint256",
          "name": "tokenId",
          "type": "uint256"
        }
      ],
      "name": "ownerOf",
      "outputs": [
        {
          "internalType": "address",
          "name": "",
          "type": "address"
        }
      ],
      "stateMutability": "view",
      "type": "function"
    },
    {
      "inputs": [],
      "name": "renounceOwnership",
      "outputs": [],
      "stateMutability": "nonpayable",
      "type": "function"
    },
    {
      "inputs": [
        {
          "internalType": "address",
          "name": "from",
          "type": "address"
        },
        {
          "internalType": "address",
          "name": "to",
          "type": "address"
        },
        {
          "internalType": "uint256",
          "name": "tokenId",
          "type": "uint256"
        }
      ],
      "name": "safeTransferFrom",
      "outputs": [],
      "stateMutability": "nonpayable",
      "type": "function"
    },
    {
      "inputs": [
        {
          "internalType": "address",
          "name": "from",
          "type": "address"
        },
        {
          "internalType": "address",
          "name": "to",
          "type": "address"
        },
        {
          "internalType": "uint256",
          "name": "tokenId",
          "type": "uint256"
        },
        {
          "internalType": "bytes",
          "name": "data",
          "type": "bytes"
        }
      ],
      "name": "safeTransferFrom",
      "outputs": [],
      "stateMutability": "nonpayable",
      "type": "function"
    },
    {
      "inputs": [
        {
          "internalType": "address",
          "name": "operator",
          "type": "address"
        },
        {
          "internalType": "bool",
          "name": "approved",
          "type": "bool"
        }
      ],
      "name": "setApprovalForAll",
      "outputs": [],
      "stateMutability": "nonpayable",
      "type": "function"
    },
    {
      "inputs": [
        {
          "internalType": "bytes4",
          "name": "interfaceId",
          "type": "bytes4"
        }
      ],
      "name": "supportsInterface",
      "outputs": [
        {
          "internalType": "bool",
          "name": "",
          "type": "bool"
        }
      ],
      "stateMutability": "view",
      "type": "function"
    },
    {
      "inputs": [],
      "name": "symbol",
      "outputs": [
        {
          "internalType": "string",
          "name": "",
          "type": "string"
        }
      ],
      "stateMutability": "view",
      "type": "function"
    },
    {
      "inputs": [],
      "name": "tokenCounter",
      "outputs": [
        {
          "internalType": "uint256",
          "name": "",
          "type": "uint256"
        }
      ],
      "stateMutability": "view",
      "type": "function"
    },
    {
      "inputs": [
        {
          "internalType": "uint256",
          "name": "tokenId",
          "type": "uint256"
        }
      ],
      "name": "tokenURI",
      "outputs": [
        {
          "internalType": "string",
          "name": "",
          "type": "string"
        }
      ],
      "stateMutability": "view",
      "type": "function"
    },
    {
      "inputs": [
        {
          "internalType": "address",
          "name": "from",
          "type": "address"
        },
        {
          "internalType": "address",
          "name": "to",
          "type": "address"
        },
        {
          "internalType": "uint256",
          "name": "tokenId",
          "type": "uint256"
        }
      ],
      "name": "transferFrom",
      "outputs": [],
      "stateMutability": "nonpayable",
      "type": "function"
    },
    {
      "inputs": [
        {
          "internalType": "address",
          "name": "newOwner",
          "type": "address"
        }
      ],
      "name": "transferOwnership",
      "outputs": [],
      "stateMutability": "nonpayable",
      "type": "function"
    }
  ],
  "bytecode": "0x608060405234801561000f575f5ffd5b5060405161127e38038061127e83398101604081905261002e9161018c565b8084845f61003c83826102bf565b50600161004982826102bf565b5050506001600160a01b03811661007957604051631e4fbdf760e01b81525f600482015260240160405180910390fd5b6100828161009e565b50600761008f83826102bf565b50505f60085550610379915050565b600680546001600160a01b038381166001600160a01b0319831681179093556040519116919082907f8be0079c531659141344cd1fd0a4f28419497f9722a3daafe3b4186f6b6457e0905f90a35050565b634e487b7160e01b5f52604160045260245ffd5b5f82601f830112610112575f5ffd5b81516001600160401b0381111561012b5761012b6100ef565b604051601f8201601f19908116603f011681016001600160401b0381118282101715610159576101596100ef565b604052818152838201602001851015610170575f5ffd5b8160208501602083015e5f918101602001919091529392505050565b5f5f5f5f6080858703121561019f575f5ffd5b84516001600160401b038111156101b4575f5ffd5b6101c087828801610103565b602087015190955090506001600160401b038111156101dd575f5ffd5b6101e987828801610103565b604087015190945090506001600160401b03811115610206575f5ffd5b61021287828801610103565b606087015190935090506001600160a01b0381168114610230575f5ffd5b939692955090935050565b600181811c9082168061024f57607f821691505b60208210810361026d57634e487b7160e01b5f52602260045260245ffd5b50919050565b601f8211156102ba57805f5260205f20601f840160051c810160208510156102985750805b601f840160051c820191505b818110156102b7575f81556001016102a4565b50505b505050565b81516001600160401b038111156102d8576102d86100ef565b6102ec816102e6845461023b565b84610273565b6020601f82116001811461031e575f83156103075750848201515b5f19600385901b1c1916600184901b1784556102b7565b5f84815260208120601f198516915b8281101561034d578785015182556020948501946001909201910161032d565b508482101561036a57868401515f19600387901b60f8161c191681555b50505050600190811b01905550565b610ef8806103865f395ff3fe608060405234801561000f575f5ffd5b5060043610610111575f3560e01c8063715018a61161009e578063b88d4fde1161006e578063b88d4fde14610233578063c87b56dd14610246578063d082e38114610259578063e985e9c514610262578063f2fde38b14610275575f5ffd5b8063715018a6146101ff5780638da5cb5b1461020757806395d89b4114610218578063a22cb46514610220575f5ffd5b806323b872dd116100e457806323b872dd1461019257806342842e0e146101a55780636352211e146101b85780636a627842146101cb57806370a08231146101de575f5ffd5b806301ffc9a71461011557806306fdde031461013d578063081812fc14610152578063095ea7b31461017d575b5f5ffd5b610128610123366004610bac565b610288565b60405190151581526020015b60405180910390f35b6101456102d9565b6040516101349190610bf5565b610165610160366004610c07565b610368565b6040516001600160a01b039091168152602001610134565b61019061018b366004610c39565b61038f565b005b6101906101a0366004610c61565b61039e565b6101906101b3366004610c61565b61042c565b6101656101c6366004610c07565b61044b565b6101906101d9366004610c9b565b610455565b6101f16101ec366004610c9b565b610480565b604051908152602001610134565b6101906104c5565b6006546001600160a01b0316610165565b6101456104d8565b61019061022e366004610cb4565b6104e7565b610190610241366004610d01565b6104f2565b610145610254366004610c07565b61050a565b6101f160085481565b610128610270366004610dde565b610546565b610190610283366004610c9b565b610573565b5f6001600160e01b031982166380ac58cd60e01b14806102b857506001600160e01b03198216635b5e139f60e01b145b806102d357506301ffc9a760e01b6001600160e01b03198316145b92915050565b60605f80546102e790610e0f565b80601f016020809104026020016040519081016040528092919081815260200182805461031390610e0f565b801561035e5780601f106103355761010080835404028352916020019161035e565b820191905f5260205f20905b81548152906001019060200180831161034157829003601f168201915b5050505050905090565b5f610372826105b0565b505f828152600460205260409020546001600160a01b03166102d3565b61039a8282336105e8565b5050565b6001600160a01b0382166103cc57604051633250574960e11b81525f60048201526024015b60405180910390fd5b5f6103d88383336105f5565b9050836001600160a01b0316816001600160a01b031614610426576040516364283d7b60e01b81526001600160a01b03808616600483015260248201849052821660448201526064016103c3565b50505050565b61044683838360405180602001604052805f8152506104f2565b505050565b5f6102d3826105b0565b61045d6106e7565b61046981600854610714565b60088054905f61047883610e47565b919050555050565b5f6001600160a01b0382166104aa576040516322718ad960e21b81525f60048201526024016103c3565b506001600160a01b03165f9081526003602052604090205490565b6104cd6106e7565b6104d65f61072d565b565b6060600180546102e790610e0f565b61039a33838361077e565b6104fd84848461039e565b610426338585858561081c565b6060610515826105b0565b505f61051f610944565b90505f81511161053d5760405180602001604052805f81525061053f565b805b9392505050565b6001600160a01b039182165f90815260056020908152604080832093909416825291909152205460ff1690565b61057b6106e7565b6001600160a01b0381166105a457604051631e4fbdf760e01b81525f60048201526024016103c3565b6105ad8161072d565b50565b5f818152600260205260408120546001600160a01b03168061053d57604051637e27328960e01b8152600481018490526024016103c3565b6104468383836001610953565b5f828152600260205260408120546001600160a01b039081169083161561062157610621818486610a57565b6001600160a01b0381161561065b5761063c5f855f5f610953565b6001600160a01b0381165f90815260036020526040902080545f190190555b6001600160a01b03851615610689576001600160a01b0385165f908152600360205260409020805460010190555b5f8481526002602052604080822080546001600160a01b0319166001600160a01b0389811691821790925591518793918516917fddf252ad1be2c89b69c2b068fc378daa952ba7f163c4a11628f55a4df523b3ef91a4949350505050565b6006546001600160a01b031633146104d65760405163118cdaa760e01b81523360048201526024016103c3565b61039a828260405180602001604052805f815250610abb565b600680546001600160a01b038381166001600160a01b0319831681179093556040519116919082907f8be0079c531659141344cd1fd0a4f28419497f9722a3daafe3b4186f6b6457e0905f90a35050565b6001600160a01b0382166107b057604051630b61174360e31b81526001600160a01b03831660048201526024016103c3565b6001600160a01b038381165f81815260056020908152604080832094871680845294825291829020805460ff191686151590811790915591519182527f17307eab39ab6107e8899845ad3d59bd9653f200f220920489ca2b5937696c31910160405180910390a3505050565b6001600160a01b0383163b1561093d57604051630a85bd0160e11b81526001600160a01b0384169063150b7a029061085e908890889087908790600401610e6b565b6020604051808303815f875af1925050508015610898575060408051601f3d908101601f1916820190925261089591810190610ea7565b60015b6108ff573d8080156108c5576040519150601f19603f3d011682016040523d82523d5f602084013e6108ca565b606091505b5080515f036108f757604051633250574960e11b81526001600160a01b03851660048201526024016103c3565b805181602001fd5b6001600160e01b03198116630a85bd0160e11b1461093b57604051633250574960e11b81526001600160a01b03851660048201526024016103c3565b505b5050505050565b6060600780546102e790610e0f565b808061096757506001600160a01b03821615155b15610a28575f610976846105b0565b90506001600160a01b038316158015906109a25750826001600160a01b0316816001600160a01b031614155b80156109b557506109b38184610546565b155b156109de5760405163a9fbf51f60e01b81526001600160a01b03841660048201526024016103c3565b8115610a265783856001600160a01b0316826001600160a01b03167f8c5be1e5ebec7d5bd14f71427d1e84f3dd0314c0f7b2291e5b200ac8c7c3b92560405160405180910390a45b505b50505f90815260046020526040902080546001600160a01b0319166001600160a01b0392909216919091179055565b610a62838383610ad2565b610446576001600160a01b038316610a9057604051637e27328960e01b8152600481018290526024016103c3565b60405163177e802f60e01b81526001600160a01b0383166004820152602481018290526044016103c3565b610ac58383610b36565b610446335f85858561081c565b5f6001600160a01b03831615801590610b2e5750826001600160a01b0316846001600160a01b03161480610b0b5750610b0b8484610546565b80610b2e57505f828152600460205260409020546001600160a01b038481169116145b949350505050565b6001600160a01b038216610b5f57604051633250574960e11b81525f60048201526024016103c3565b5f610b6b83835f6105f5565b90506001600160a01b03811615610446576040516339e3563760e11b81525f60048201526024016103c3565b6001600160e01b0319811681146105ad575f5ffd5b5f60208284031215610bbc575f5ffd5b813561053f81610b97565b5f81518084528060208401602086015e5f602082860101526020601f19601f83011685010191505092915050565b602081525f61053f6020830184610bc7565b5f60208284031215610c17575f5ffd5b5035919050565b80356001600160a01b0381168114610c34575f5ffd5b919050565b5f5f60408385031215610c4a575f5ffd5b610c5383610c1e565b946020939093013593505050565b5f5f5f60608486031215610c73575f5ffd5b610c7c84610c1e565b9250610c8a60208501610c1e565b929592945050506040919091013590565b5f60208284031215610cab575f5ffd5b61053f82610c1e565b5f5f60408385031215610cc5575f5ffd5b610cce83610c1e565b915060208301358015158114610ce2575f5ffd5b809150509250929050565b634e487b7160e01b5f52604160045260245ffd5b5f5f5f5f60808587031215610d14575f5ffd5b610d1d85610c1e565b9350610d2b60208601610c1e565b925060408501359150606085013567ffffffffffffffff811115610d4d575f5ffd5b8501601f81018713610d5d575f5ffd5b803567ffffffffffffffff811115610d7757610d77610ced565b604051601f8201601f19908116603f0116810167ffffffffffffffff81118282101715610da657610da6610ced565b604052818152828201602001891015610dbd575f5ffd5b816020840160208301375f6020838301015280935050505092959194509250565b5f5f60408385031215610def575f5ffd5b610df883610c1e565b9150610e0660208401610c1e565b90509250929050565b600181811c90821680610e2357607f821691505b602082108103610e4157634e487b7160e01b5f52602260045260245ffd5b50919050565b5f60018201610e6457634e487b7160e01b5f52601160045260245ffd5b5060010190565b6001600160a01b03858116825284166020820152604081018390526080606082018190525f90610e9d90830184610bc7565b9695505050505050565b5f60208284031215610eb7575f5ffd5b815161053f81610b9756fea26469706673582212207ad37de9bb19e18f542eda4e11adc5c5f90b0a9ed9df2bfeaba79bfe2950c1da64736f6c634300081c0033",
  "linkReferences": {},
  "deployedLinkReferences": {},
  "immutableReferences": {},
  "inputSourceName": "project/contracts/ERC721Custom.sol",
  "buildInfoId": "solc-0_8_28-caaa43c4b7383c86ebbc79e00ff64b62915829ec"
}